{
  "contractName": "RocketTokenCrowdsale",
  "abi": [
    {
      "constant": true,
      "inputs": [
        {
          "name": "_operator",
          "type": "address"
        },
        {
          "name": "_role",
          "type": "string"
        }
      ],
      "name": "checkRole",
      "outputs": [],
      "payable": false,
      "stateMutability": "view",
      "type": "function"
    },
    {
      "constant": true,
      "inputs": [],
      "name": "hasClosed",
      "outputs": [
        {
          "name": "",
          "type": "bool"
        }
      ],
      "payable": false,
      "stateMutability": "view",
      "type": "function"
    },
    {
      "constant": true,
      "inputs": [],
      "name": "ROLE_WHITELISTED",
      "outputs": [
        {
          "name": "",
          "type": "string"
        }
      ],
      "payable": false,
      "stateMutability": "view",
      "type": "function"
    },
    {
      "constant": true,
      "inputs": [
        {
          "name": "_operator",
          "type": "address"
        },
        {
          "name": "_role",
          "type": "string"
        }
      ],
      "name": "hasRole",
      "outputs": [
        {
          "name": "",
          "type": "bool"
        }
      ],
      "payable": false,
      "stateMutability": "view",
      "type": "function"
    },
    {
      "constant": false,
      "inputs": [
        {
          "name": "_operators",
          "type": "address[]"
        }
      ],
      "name": "removeAddressesFromWhitelist",
      "outputs": [],
      "payable": false,
      "stateMutability": "nonpayable",
      "type": "function"
    },
    {
      "constant": false,
      "inputs": [
        {
          "name": "_operator",
          "type": "address"
        }
      ],
      "name": "removeAddressFromWhitelist",
      "outputs": [],
      "payable": false,
      "stateMutability": "nonpayable",
      "type": "function"
    },
    {
      "constant": true,
      "inputs": [],
      "name": "rate",
      "outputs": [
        {
          "name": "",
          "type": "uint256"
        }
      ],
      "payable": false,
      "stateMutability": "view",
      "type": "function"
    },
    {
      "constant": true,
      "inputs": [],
      "name": "cap",
      "outputs": [
        {
          "name": "",
          "type": "uint256"
        }
      ],
      "payable": false,
      "stateMutability": "view",
      "type": "function"
    },
    {
      "constant": true,
      "inputs": [],
      "name": "weiRaised",
      "outputs": [
        {
          "name": "",
          "type": "uint256"
        }
      ],
      "payable": false,
      "stateMutability": "view",
      "type": "function"
    },
    {
      "constant": true,
      "inputs": [],
      "name": "closingTime",
      "outputs": [
        {
          "name": "",
          "type": "uint256"
        }
      ],
      "payable": false,
      "stateMutability": "view",
      "type": "function"
    },
    {
      "constant": true,
      "inputs": [],
      "name": "capReached",
      "outputs": [
        {
          "name": "",
          "type": "bool"
        }
      ],
      "payable": false,
      "stateMutability": "view",
      "type": "function"
    },
    {
      "constant": true,
      "inputs": [],
      "name": "wallet",
      "outputs": [
        {
          "name": "",
          "type": "address"
        }
      ],
      "payable": false,
      "stateMutability": "view",
      "type": "function"
    },
    {
      "constant": false,
      "inputs": [],
      "name": "renounceOwnership",
      "outputs": [],
      "payable": false,
      "stateMutability": "nonpayable",
      "type": "function"
    },
    {
      "constant": false,
      "inputs": [
        {
          "name": "_operator",
          "type": "address"
        }
      ],
      "name": "addAddressToWhitelist",
      "outputs": [],
      "payable": false,
      "stateMutability": "nonpayable",
      "type": "function"
    },
    {
      "constant": true,
      "inputs": [],
      "name": "owner",
      "outputs": [
        {
          "name": "",
          "type": "address"
        }
      ],
      "payable": false,
      "stateMutability": "view",
      "type": "function"
    },
    {
      "constant": true,
      "inputs": [
        {
          "name": "_operator",
          "type": "address"
        }
      ],
      "name": "whitelist",
      "outputs": [
        {
          "name": "",
          "type": "bool"
        }
      ],
      "payable": false,
      "stateMutability": "view",
      "type": "function"
    },
    {
      "constant": true,
      "inputs": [],
      "name": "openingTime",
      "outputs": [
        {
          "name": "",
          "type": "uint256"
        }
      ],
      "payable": false,
      "stateMutability": "view",
      "type": "function"
    },
    {
      "constant": true,
      "inputs": [],
      "name": "remainingTokens",
      "outputs": [
        {
          "name": "",
          "type": "uint256"
        }
      ],
      "payable": false,
      "stateMutability": "view",
      "type": "function"
    },
    {
      "constant": true,
      "inputs": [],
      "name": "tokenWallet",
      "outputs": [
        {
          "name": "",
          "type": "address"
        }
      ],
      "payable": false,
      "stateMutability": "view",
      "type": "function"
    },
    {
      "constant": false,
      "inputs": [
        {
          "name": "_operators",
          "type": "address[]"
        }
      ],
      "name": "addAddressesToWhitelist",
      "outputs": [],
      "payable": false,
      "stateMutability": "nonpayable",
      "type": "function"
    },
    {
      "constant": false,
      "inputs": [
        {
          "name": "_beneficiary",
          "type": "address"
        }
      ],
      "name": "buyTokens",
      "outputs": [],
      "payable": true,
      "stateMutability": "payable",
      "type": "function"
    },
    {
      "constant": false,
      "inputs": [
        {
          "name": "_newOwner",
          "type": "address"
        }
      ],
      "name": "transferOwnership",
      "outputs": [],
      "payable": false,
      "stateMutability": "nonpayable",
      "type": "function"
    },
    {
      "constant": true,
      "inputs": [],
      "name": "token",
      "outputs": [
        {
          "name": "",
          "type": "address"
        }
      ],
      "payable": false,
      "stateMutability": "view",
      "type": "function"
    },
    {
      "inputs": [
        {
          "name": "_openingTime",
          "type": "uint256"
        },
        {
          "name": "_closingTime",
          "type": "uint256"
        },
        {
          "name": "_rate",
          "type": "uint256"
        },
        {
          "name": "_wallet",
          "type": "address"
        },
        {
          "name": "_tokenWallet",
          "type": "address"
        },
        {
          "name": "_cap",
          "type": "uint256"
        },
        {
          "name": "_token",
          "type": "address"
        }
      ],
      "payable": false,
      "stateMutability": "nonpayable",
      "type": "constructor"
    },
    {
      "payable": true,
      "stateMutability": "payable",
      "type": "fallback"
    },
    {
      "anonymous": false,
      "inputs": [
        {
          "indexed": true,
          "name": "purchaser",
          "type": "address"
        },
        {
          "indexed": true,
          "name": "beneficiary",
          "type": "address"
        },
        {
          "indexed": false,
          "name": "value",
          "type": "uint256"
        },
        {
          "indexed": false,
          "name": "amount",
          "type": "uint256"
        }
      ],
      "name": "TokenPurchase",
      "type": "event"
    },
    {
      "anonymous": false,
      "inputs": [
        {
          "indexed": true,
          "name": "operator",
          "type": "address"
        },
        {
          "indexed": false,
          "name": "role",
          "type": "string"
        }
      ],
      "name": "RoleAdded",
      "type": "event"
    },
    {
      "anonymous": false,
      "inputs": [
        {
          "indexed": true,
          "name": "operator",
          "type": "address"
        },
        {
          "indexed": false,
          "name": "role",
          "type": "string"
        }
      ],
      "name": "RoleRemoved",
      "type": "event"
    },
    {
      "anonymous": false,
      "inputs": [
        {
          "indexed": true,
          "name": "previousOwner",
          "type": "address"
        }
      ],
      "name": "OwnershipRenounced",
      "type": "event"
    },
    {
      "anonymous": false,
      "inputs": [
        {
          "indexed": true,
          "name": "previousOwner",
          "type": "address"
        },
        {
          "indexed": true,
          "name": "newOwner",
          "type": "address"
        }
      ],
      "name": "OwnershipTransferred",
      "type": "event"
    }
  ],
  "bytecode": "0x608060405234801561001057600080fd5b5060405160e08061104f83398101604090815281516020830151918301516060840151608085015160a086015160c09096015160008054600160a060020a0319163317815594969394929391928290849089908990899089908790831161007657600080fd5b600160a060020a038216151561008b57600080fd5b600160a060020a03811615156100a057600080fd5b60049290925560038054600160a060020a03928316600160a060020a03199182161790915560028054929093169116179055428210156100df57600080fd5b818110156100ec57600080fd5b600691909155600755600160a060020a038116151561010a57600080fd5b60088054600160a060020a031916600160a060020a03929092169190911790556000811161013757600080fd5b60095550505050505050610eff806101506000396000f3006080604052600436106101325763ffffffff7c01000000000000000000000000000000000000000000000000000000006000350416630988ca8c811461013d5780631515bc2b146101a457806318b919e9146101cd578063217fe6c61461025757806324953eaa146102be578063286dd3f5146103135780632c4e722e14610334578063355274ea1461035b5780634042b66f146103705780634b6753bc146103855780634f9359451461039a578063521eb273146103af578063715018a6146103e05780637b9417c8146103f55780638da5cb5b146104165780639b19251a1461042b578063b7a8807c1461044c578063bf58390314610461578063bff99c6c14610476578063e2ec6ec31461048b578063ec8ac4d8146104e0578063f2fde38b146104f4578063fc0c546a14610515575b61013b3361052a565b005b34801561014957600080fd5b5060408051602060046024803582810135601f810185900485028601850190965285855261013b958335600160a060020a03169536956044949193909101919081908401838280828437509497506105cc9650505050505050565b3480156101b057600080fd5b506101b961063a565b604080519115158252519081900360200190f35b3480156101d957600080fd5b506101e2610642565b6040805160208082528351818301528351919283929083019185019080838360005b8381101561021c578181015183820152602001610204565b50505050905090810190601f1680156102495780820380516001836020036101000a031916815260200191505b509250505060405180910390f35b34801561026357600080fd5b5060408051602060046024803582810135601f81018590048502860185019096528585526101b9958335600160a060020a03169536956044949193909101919081908401838280828437509497506106679650505050505050565b3480156102ca57600080fd5b506040805160206004803580820135838102808601850190965280855261013b953695939460249493850192918291850190849080828437509497506106dc9650505050505050565b34801561031f57600080fd5b5061013b600160a060020a0360043516610729565b34801561034057600080fd5b50610349610770565b60408051918252519081900360200190f35b34801561036757600080fd5b50610349610776565b34801561037c57600080fd5b5061034961077c565b34801561039157600080fd5b50610349610782565b3480156103a657600080fd5b506101b9610788565b3480156103bb57600080fd5b506103c4610793565b60408051600160a060020a039092168252519081900360200190f35b3480156103ec57600080fd5b5061013b6107a2565b34801561040157600080fd5b5061013b600160a060020a036004351661080e565b34801561042257600080fd5b506103c4610852565b34801561043757600080fd5b506101b9600160a060020a0360043516610861565b34801561045857600080fd5b50610349610890565b34801561046d57600080fd5b50610349610896565b34801561048257600080fd5b506103c461093b565b34801561049757600080fd5b506040805160206004803580820135838102808601850190965280855261013b9536959394602494938501929182918501908490808284375094975061094a9650505050505050565b61013b600160a060020a036004351661052a565b34801561050057600080fd5b5061013b600160a060020a0360043516610997565b34801561052157600080fd5b506103c46109b7565b34600061053783836109c6565b610540826109f1565b600554909150610556908363ffffffff610a0816565b6005556105638382610a15565b60408051838152602081018390528151600160a060020a0386169233927f623b3804fa71d67900d064613da8f94b9617215ee90799290593e1745087ad18929081900390910190a36105b58383610636565b6105bd610a1f565b6105c78383610636565b505050565b610636826001836040518082805190602001908083835b602083106106025780518252601f1990920191602091820191016105e3565b51815160209384036101000a6000190180199092169116179052920194855250604051938490030190922092915050610a58565b5050565b600754421190565b6040805180820190915260098152600080516020610eb4833981519152602082015281565b60006106d3836001846040518082805190602001908083835b6020831061069f5780518252601f199092019160209182019101610680565b51815160209384036101000a6000190180199092169116179052920194855250604051938490030190922092915050610a6d565b90505b92915050565b60008054600160a060020a031633146106f457600080fd5b5060005b815181101561063657610721828281518110151561071257fe5b90602001906020020151610729565b6001016106f8565b600054600160a060020a0316331461074057600080fd5b61076d81604080519081016040528060098152602001600080516020610eb4833981519152815250610a8c565b50565b60045481565b60095481565b60055481565b60075481565b600954600554101590565b600354600160a060020a031681565b600054600160a060020a031633146107b957600080fd5b60008054604051600160a060020a03909116917ff8df31144d9c2f0f6b59d69b8b98abd5459d07f2742c4df920b25aae33c6482091a26000805473ffffffffffffffffffffffffffffffffffffffff19169055565b600054600160a060020a0316331461082557600080fd5b61076d81604080519081016040528060098152602001600080516020610eb4833981519152815250610b9d565b600054600160a060020a031681565b60006106d682604080519081016040528060098152602001600080516020610eb4833981519152815250610667565b60065481565b600254600854604080517fdd62ed3e000000000000000000000000000000000000000000000000000000008152600160a060020a0392831660048201523060248201529051600093929092169163dd62ed3e9160448082019260209290919082900301818787803b15801561090a57600080fd5b505af115801561091e573d6000803e3d6000fd5b505050506040513d602081101561093457600080fd5b5051905090565b600854600160a060020a031681565b60008054600160a060020a0316331461096257600080fd5b5060005b81518110156106365761098f828281518110151561098057fe5b9060200190602002015161080e565b600101610966565b600054600160a060020a031633146109ae57600080fd5b61076d81610c6f565b600254600160a060020a031681565b6109d08282610cec565b6009546005546109e6908363ffffffff610a0816565b111561063657600080fd5b60006106d660045483610d2490919063ffffffff16565b818101828110156106d657fe5b6106368282610d4d565b600354604051600160a060020a03909116903480156108fc02916000818181858888f1935050505015801561076d573d6000803e3d6000fd5b610a628282610a6d565b151561063657600080fd5b600160a060020a03166000908152602091909152604090205460ff1690565b610af6826001836040518082805190602001908083835b60208310610ac25780518252601f199092019160209182019101610aa3565b51815160209384036101000a6000190180199092169116179052920194855250604051938490030190922092915050610d71565b81600160a060020a03167fd211483f91fc6eff862467f8de606587a30c8fc9981056f051b897a418df803a826040518080602001828103825283818151815260200191508051906020019080838360005b83811015610b5f578181015183820152602001610b47565b50505050905090810190601f168015610b8c5780820380516001836020036101000a031916815260200191505b509250505060405180910390a25050565b610c07826001836040518082805190602001908083835b60208310610bd35780518252601f199092019160209182019101610bb4565b51815160209384036101000a6000190180199092169116179052920194855250604051938490030190922092915050610d93565b81600160a060020a03167fbfec83d64eaa953f2708271a023ab9ee82057f8f3578d548c1a4ba0b5b7004898260405180806020018281038252838181518152602001915080519060200190808383600083811015610b5f578181015183820152602001610b47565b600160a060020a0381161515610c8457600080fd5b60008054604051600160a060020a03808516939216917f8be0079c531659141344cd1fd0a4f28419497f9722a3daafe3b4186f6b6457e091a36000805473ffffffffffffffffffffffffffffffffffffffff1916600160a060020a0392909216919091179055565b81610d1a81604080519081016040528060098152602001600080516020610eb48339815191528152506105cc565b6105c78383610db8565b6000821515610d35575060006106d6565b50818102818382811515610d4557fe5b04146106d657fe5b60085460025461063691600160a060020a039182169116848463ffffffff610de116565b600160a060020a0316600090815260209190915260409020805460ff19169055565b600160a060020a0316600090815260209190915260409020805460ff19166001179055565b6006544210158015610dcc57506007544211155b1515610dd757600080fd5b6106368282610e92565b604080517f23b872dd000000000000000000000000000000000000000000000000000000008152600160a060020a0385811660048301528481166024830152604482018490529151918616916323b872dd916064808201926020929091908290030181600087803b158015610e5557600080fd5b505af1158015610e69573d6000803e3d6000fd5b505050506040513d6020811015610e7f57600080fd5b50511515610e8c57600080fd5b50505050565b600160a060020a0382161515610ea757600080fd5b80151561063657600080fd0077686974656c6973740000000000000000000000000000000000000000000000a165627a7a723058208690169a13a07861e7fbab00aca2eb19f3d97f25307584e014f4484ee2bc5f3f0029",
  "source": "pragma solidity 0.4.24;\n\nimport './RocketToken.sol'; \n\nimport 'openzeppelin-solidity/contracts/crowdsale/validation/CappedCrowdsale.sol';\nimport 'openzeppelin-solidity/contracts/crowdsale/validation/TimedCrowdsale.sol';\nimport 'openzeppelin-solidity/contracts/crowdsale/validation/WhitelistedCrowdsale.sol';\nimport 'openzeppelin-solidity/contracts/crowdsale/emission/AllowanceCrowdsale.sol';\n\ncontract RocketTokenCrowdsale is TimedCrowdsale, AllowanceCrowdsale, WhitelistedCrowdsale, CappedCrowdsale {\n    constructor (\n            uint256 _openingTime,\n            uint256 _closingTime,\n            uint256 _rate,\n            address _wallet,\n            address _tokenWallet,\n            uint256 _cap,\n            MintableToken _token\n        )\n        public\n        Crowdsale(_rate, _wallet, _token)\n        TimedCrowdsale(_openingTime, _closingTime) \n        WhitelistedCrowdsale() \n        AllowanceCrowdsale( _tokenWallet )  \n        CappedCrowdsale( _cap )  {\n        \n        }\n}\n",
  "sourcePath": "/Users/nickfallon/source/_tests/ico/contracts/RocketTokenCrowdsale.sol",
  "compiler": {
    "name": "solc",
    "version": "0.4.24+commit.e67f0147.Emscripten.clang"
  },
  "schemaVersion": "2.0.1",
  "updatedAt": "2018-08-21T18:54:40.038Z"
}